{
  "contractName": "Splitter",
  "abi": [
    {
      "constant": true,
      "inputs": [],
      "name": "_carol",
      "outputs": [
        {
          "name": "",
          "type": "address"
        }
      ],
      "payable": false,
      "stateMutability": "view",
      "type": "function"
    },
    {
      "constant": true,
      "inputs": [],
      "name": "_owner",
      "outputs": [
        {
          "name": "",
          "type": "address"
        }
      ],
      "payable": false,
      "stateMutability": "view",
      "type": "function"
    },
    {
      "constant": true,
      "inputs": [],
      "name": "_bob",
      "outputs": [
        {
          "name": "",
          "type": "address"
        }
      ],
      "payable": false,
      "stateMutability": "view",
      "type": "function"
    },
    {
      "inputs": [
        {
          "name": "bobAddress",
          "type": "address"
        },
        {
          "name": "carolAddress",
          "type": "address"
        }
      ],
      "payable": false,
      "stateMutability": "nonpayable",
      "type": "constructor"
    },
    {
      "constant": false,
      "inputs": [],
      "name": "split",
      "outputs": [
        {
          "name": "",
          "type": "bool"
        }
      ],
      "payable": true,
      "stateMutability": "payable",
      "type": "function"
    },
    {
      "constant": false,
      "inputs": [],
      "name": "termiante",
      "outputs": [],
      "payable": false,
      "stateMutability": "nonpayable",
      "type": "function"
    }
  ],
  "bytecode": "0x608060405234801561001057600080fd5b506040516040806105558339810180604052810190808051906020019092919080519060200190929190505050816000806101000a81548173ffffffffffffffffffffffffffffffffffffffff021916908373ffffffffffffffffffffffffffffffffffffffff16021790555080600160006101000a81548173ffffffffffffffffffffffffffffffffffffffff021916908373ffffffffffffffffffffffffffffffffffffffff16021790555033600260006101000a81548173ffffffffffffffffffffffffffffffffffffffff021916908373ffffffffffffffffffffffffffffffffffffffff1602179055505050610445806101106000396000f30060806040526004361061006d576000357c0100000000000000000000000000000000000000000000000000000000900463ffffffff1680634e3c146b146100725780636773920c146100c9578063b2bdfa7b146100e0578063f765417614610137578063ff36880a14610159575b600080fd5b34801561007e57600080fd5b506100876101b0565b604051808273ffffffffffffffffffffffffffffffffffffffff1673ffffffffffffffffffffffffffffffffffffffff16815260200191505060405180910390f35b3480156100d557600080fd5b506100de6101d6565b005b3480156100ec57600080fd5b506100f561026d565b604051808273ffffffffffffffffffffffffffffffffffffffff1673ffffffffffffffffffffffffffffffffffffffff16815260200191505060405180910390f35b61013f610293565b604051808215151515815260200191505060405180910390f35b34801561016557600080fd5b5061016e6103f4565b604051808273ffffffffffffffffffffffffffffffffffffffff1673ffffffffffffffffffffffffffffffffffffffff16815260200191505060405180910390f35b600160009054906101000a900473ffffffffffffffffffffffffffffffffffffffff1681565b600260009054906101000a900473ffffffffffffffffffffffffffffffffffffffff1673ffffffffffffffffffffffffffffffffffffffff163373ffffffffffffffffffffffffffffffffffffffff1614151561023257600080fd5b600260009054906101000a900473ffffffffffffffffffffffffffffffffffffffff1673ffffffffffffffffffffffffffffffffffffffff16ff5b600260009054906101000a900473ffffffffffffffffffffffffffffffffffffffff1681565b6000600234101515156102a557600080fd5b60006002348115156102b357fe5b06141515610304573373ffffffffffffffffffffffffffffffffffffffff166108fc60019081150290604051600060405180830381858888f19350505050158015610302573d6000803e3d6000fd5b505b6000809054906101000a900473ffffffffffffffffffffffffffffffffffffffff1673ffffffffffffffffffffffffffffffffffffffff166108fc60023481151561034b57fe5b049081150290604051600060405180830381858888f19350505050158015610377573d6000803e3d6000fd5b50600160009054906101000a900473ffffffffffffffffffffffffffffffffffffffff1673ffffffffffffffffffffffffffffffffffffffff166108fc6002348115156103c057fe5b049081150290604051600060405180830381858888f193505050501580156103ec573d6000803e3d6000fd5b506001905090565b6000809054906101000a900473ffffffffffffffffffffffffffffffffffffffff16815600a165627a7a72305820275376fd0ee76b0e729ed82316fe373dfc54e8b1e9cbaf9bf21c6bc44efa3a8e0029",
  "source": "pragma solidity ^0.4.18;\r\n\r\ncontract Splitter {\r\n     address public _bob;\r\n     address public _carol;\r\n     address public _owner;\r\n    \r\n    function Splitter(address bobAddress, address carolAddress){\r\n        _bob = bobAddress;\r\n        _carol = carolAddress;\r\n        _owner = msg.sender;\r\n    }\r\n    \r\n    function split() payable public returns(bool){\r\n        require(msg.value >= 2 );\r\n        \r\n        if(msg.value % 2 != 0)\r\n        {\r\n            msg.sender.transfer(1);\r\n        }\r\n        \r\n        _bob.transfer(msg.value / 2);\r\n        _carol.transfer(msg.value / 2);\r\n        \r\n        return true;\r\n    }\r\n    \r\n    function termiante() public {\r\n        require(msg.sender == _owner);\r\n        selfdestruct(_owner);\r\n    }\r\n}",
  "sourcePath": "C:\\Work\\LimeChain\\Course\\Exam\\Git\\LC_BlockchainSolidity\\Splitter\\contracts\\Splitter.sol",
  "compiler": {
    "name": "solc",
    "version": "0.4.23+commit.124ca40d.Emscripten.clang"
  },
  "schemaVersion": "2.0.0",
  "updatedAt": "2018-05-11T14:46:35.226Z"
}