{
  "contractName": "Splitter",
  "abi": [
    {
      "constant": true,
      "inputs": [],
      "name": "_carol",
      "outputs": [
        {
          "name": "",
          "type": "address"
        }
      ],
      "payable": false,
      "stateMutability": "view",
      "type": "function"
    },
    {
      "constant": true,
      "inputs": [],
      "name": "_owner",
      "outputs": [
        {
          "name": "",
          "type": "address"
        }
      ],
      "payable": false,
      "stateMutability": "view",
      "type": "function"
    },
    {
      "constant": true,
      "inputs": [],
      "name": "_bob",
      "outputs": [
        {
          "name": "",
          "type": "address"
        }
      ],
      "payable": false,
      "stateMutability": "view",
      "type": "function"
    },
    {
      "inputs": [
        {
          "name": "bobAddress",
          "type": "address"
        },
        {
          "name": "carolAddress",
          "type": "address"
        }
      ],
      "payable": false,
      "stateMutability": "nonpayable",
      "type": "constructor"
    },
    {
      "constant": false,
      "inputs": [],
      "name": "split",
      "outputs": [
        {
          "name": "",
          "type": "bool"
        }
      ],
      "payable": true,
      "stateMutability": "payable",
      "type": "function"
    },
    {
      "constant": true,
      "inputs": [],
      "name": "getBobBalance",
      "outputs": [
        {
          "name": "",
          "type": "uint256"
        }
      ],
      "payable": false,
      "stateMutability": "view",
      "type": "function"
    },
    {
      "constant": true,
      "inputs": [],
      "name": "getAliceBalance",
      "outputs": [
        {
          "name": "",
          "type": "uint256"
        }
      ],
      "payable": false,
      "stateMutability": "view",
      "type": "function"
    },
    {
      "constant": false,
      "inputs": [],
      "name": "termiante",
      "outputs": [],
      "payable": false,
      "stateMutability": "nonpayable",
      "type": "function"
    }
  ],
  "bytecode": "0x608060405234801561001057600080fd5b506040516040806105e78339810180604052810190808051906020019092919080519060200190929190505050816000806101000a81548173ffffffffffffffffffffffffffffffffffffffff021916908373ffffffffffffffffffffffffffffffffffffffff16021790555080600160006101000a81548173ffffffffffffffffffffffffffffffffffffffff021916908373ffffffffffffffffffffffffffffffffffffffff16021790555033600260006101000a81548173ffffffffffffffffffffffffffffffffffffffff021916908373ffffffffffffffffffffffffffffffffffffffff16021790555050506104d7806101106000396000f300608060405260043610610083576000357c0100000000000000000000000000000000000000000000000000000000900463ffffffff16806325c4dc3c146100885780634e3c146b146100b35780636773920c1461010a578063b2bdfa7b14610121578063f1a16f6814610178578063f7654176146101a3578063ff36880a146101c5575b600080fd5b34801561009457600080fd5b5061009d61021c565b6040518082815260200191505060405180910390f35b3480156100bf57600080fd5b506100c861025d565b604051808273ffffffffffffffffffffffffffffffffffffffff1673ffffffffffffffffffffffffffffffffffffffff16815260200191505060405180910390f35b34801561011657600080fd5b5061011f610283565b005b34801561012d57600080fd5b5061013661031a565b604051808273ffffffffffffffffffffffffffffffffffffffff1673ffffffffffffffffffffffffffffffffffffffff16815260200191505060405180910390f35b34801561018457600080fd5b5061018d610340565b6040518082815260200191505060405180910390f35b6101ab610380565b604051808215151515815260200191505060405180910390f35b3480156101d157600080fd5b506101da610486565b604051808273ffffffffffffffffffffffffffffffffffffffff1673ffffffffffffffffffffffffffffffffffffffff16815260200191505060405180910390f35b6000600160009054906101000a900473ffffffffffffffffffffffffffffffffffffffff1673ffffffffffffffffffffffffffffffffffffffff1631905090565b600160009054906101000a900473ffffffffffffffffffffffffffffffffffffffff1681565b600260009054906101000a900473ffffffffffffffffffffffffffffffffffffffff1673ffffffffffffffffffffffffffffffffffffffff163373ffffffffffffffffffffffffffffffffffffffff161415156102df57600080fd5b600260009054906101000a900473ffffffffffffffffffffffffffffffffffffffff1673ffffffffffffffffffffffffffffffffffffffff16ff5b600260009054906101000a900473ffffffffffffffffffffffffffffffffffffffff1681565b60008060009054906101000a900473ffffffffffffffffffffffffffffffffffffffff1673ffffffffffffffffffffffffffffffffffffffff1631905090565b60006001341115156103955760009050610483565b6000809054906101000a900473ffffffffffffffffffffffffffffffffffffffff1673ffffffffffffffffffffffffffffffffffffffff166108fc6002348115156103dc57fe5b049081150290604051600060405180830381858888f19350505050158015610408573d6000803e3d6000fd5b50600160009054906101000a900473ffffffffffffffffffffffffffffffffffffffff1673ffffffffffffffffffffffffffffffffffffffff166108fc60023481151561045157fe5b049081150290604051600060405180830381858888f1935050505015801561047d573d6000803e3d6000fd5b50600190505b90565b6000809054906101000a900473ffffffffffffffffffffffffffffffffffffffff16815600a165627a7a723058208b9ebedff6ecdf1901deda2eb549681f661b799915efaef8edf5152b227d3dd30029",
  "source": "pragma solidity ^0.4.18;\r\n\r\ncontract Splitter {\r\n     address public _bob;\r\n     address public _carol;\r\n     address public _owner;\r\n    \r\n    function Splitter(address bobAddress, address carolAddress){\r\n        _bob = bobAddress;\r\n        _carol = carolAddress;\r\n        _owner = msg.sender;\r\n    }\r\n    \r\n    function split() payable public returns(bool){\r\n        if(msg.value <= 1 ) return false;\r\n        \r\n        _bob.transfer(msg.value / 2);\r\n        _carol.transfer(msg.value / 2);\r\n        \r\n        return true;\r\n    }\r\n\r\n    function getBobBalance() constant returns (uint) {\r\n        return _bob.balance;\r\n    }\r\n    \r\n    function getAliceBalance() constant returns (uint) {\r\n        return _carol.balance;\r\n    }\r\n    \r\n    function termiante() public {\r\n        require(msg.sender == _owner);\r\n        selfdestruct(_owner);\r\n    }\r\n}",
  "sourcePath": "C:\\Work\\LimeChain\\Course\\Exam\\Splitter\\contracts\\Splitter.sol",
  "compiler": {
    "name": "solc",
    "version": "0.4.23+commit.124ca40d.Emscripten.clang"
  },
  "schemaVersion": "2.0.0",
  "updatedAt": "2018-05-08T18:01:32.467Z"
}