{
  "contractName": "Remittance",
  "abi": [
    {
      "constant": true,
      "inputs": [
        {
          "name": "",
          "type": "address"
        }
      ],
      "name": "localCurrencyBalances",
      "outputs": [
        {
          "name": "",
          "type": "uint256"
        }
      ],
      "payable": false,
      "stateMutability": "view",
      "type": "function"
    },
    {
      "constant": true,
      "inputs": [
        {
          "name": "",
          "type": "bytes32"
        }
      ],
      "name": "orders",
      "outputs": [
        {
          "name": "owner",
          "type": "address"
        },
        {
          "name": "recipient",
          "type": "address"
        },
        {
          "name": "amount",
          "type": "uint256"
        },
        {
          "name": "pass",
          "type": "bytes32"
        }
      ],
      "payable": false,
      "stateMutability": "view",
      "type": "function"
    },
    {
      "inputs": [],
      "payable": false,
      "stateMutability": "nonpayable",
      "type": "constructor"
    },
    {
      "constant": false,
      "inputs": [
        {
          "name": "password",
          "type": "bytes32"
        },
        {
          "name": "recipient",
          "type": "address"
        }
      ],
      "name": "sendRemittance",
      "outputs": [
        {
          "name": "",
          "type": "bool"
        }
      ],
      "payable": true,
      "stateMutability": "payable",
      "type": "function"
    },
    {
      "constant": false,
      "inputs": [
        {
          "name": "emailPassword",
          "type": "string"
        },
        {
          "name": "smsPassword",
          "type": "string"
        },
        {
          "name": "r",
          "type": "address"
        }
      ],
      "name": "claim",
      "outputs": [
        {
          "name": "",
          "type": "bool"
        }
      ],
      "payable": false,
      "stateMutability": "nonpayable",
      "type": "function"
    },
    {
      "constant": true,
      "inputs": [
        {
          "name": "addr",
          "type": "address"
        }
      ],
      "name": "getLocalCurrencyByAddress",
      "outputs": [
        {
          "name": "",
          "type": "uint256"
        }
      ],
      "payable": false,
      "stateMutability": "view",
      "type": "function"
    },
    {
      "constant": false,
      "inputs": [
        {
          "name": "password",
          "type": "bytes32"
        }
      ],
      "name": "cancelRemittance",
      "outputs": [
        {
          "name": "",
          "type": "bool"
        }
      ],
      "payable": false,
      "stateMutability": "nonpayable",
      "type": "function"
    }
  ],
  "bytecode": "0x6080604052662386f26fc1000060035534801561001b57600080fd5b506127106000803373ffffffffffffffffffffffffffffffffffffffff1673ffffffffffffffffffffffffffffffffffffffff16815260200190815260200160002081905550612710600281905550610950806100796000396000f300608060405260043610610078576000357c0100000000000000000000000000000000000000000000000000000000900463ffffffff168063110316b71461007d5780635017b27a146100c657806353080f171461011d5780635cc2f4611461017957806381e3f073146102605780639c3f1e90146102b7575b600080fd5b34801561008957600080fd5b506100ac6004803603810190808035600019169060200190929190505050610371565b604051808215151515815260200191505060405180910390f35b3480156100d257600080fd5b50610107600480360381019080803573ffffffffffffffffffffffffffffffffffffffff1690602001909291905050506104c0565b6040518082815260200191505060405180910390f35b61015f6004803603810190808035600019169060200190929190803573ffffffffffffffffffffffffffffffffffffffff169060200190929190505050610508565b604051808215151515815260200191505060405180910390f35b34801561018557600080fd5b50610246600480360381019080803590602001908201803590602001908080601f0160208091040260200160405190810160405280939291908181526020018383808284378201915050505050509192919290803590602001908201803590602001908080601f0160208091040260200160405190810160405280939291908181526020018383808284378201915050505050509192919290803573ffffffffffffffffffffffffffffffffffffffff169060200190929190505050610651565b604051808215151515815260200191505060405180910390f35b34801561026c57600080fd5b506102a1600480360381019080803573ffffffffffffffffffffffffffffffffffffffff16906020019092919050505061089c565b6040518082815260200191505060405180910390f35b3480156102c357600080fd5b506102e660048036038101908080356000191690602001909291905050506108b4565b604051808573ffffffffffffffffffffffffffffffffffffffff1673ffffffffffffffffffffffffffffffffffffffff1681526020018473ffffffffffffffffffffffffffffffffffffffff1673ffffffffffffffffffffffffffffffffffffffff168152602001838152602001826000191660001916815260200194505050505060405180910390f35b60008060016000846000191660001916815260200190815260200160002090508060000160009054906101000a900473ffffffffffffffffffffffffffffffffffffffff1673ffffffffffffffffffffffffffffffffffffffff163373ffffffffffffffffffffffffffffffffffffffff161415156103ef57600080fd5b3373ffffffffffffffffffffffffffffffffffffffff166108fc82600201549081150290604051600060405180830381858888f19350505050158015610439573d6000803e3d6000fd5b50600160008460001916600019168152602001908152602001600020600080820160006101000a81549073ffffffffffffffffffffffffffffffffffffffff02191690556001820160006101000a81549073ffffffffffffffffffffffffffffffffffffffff02191690556002820160009055600382016000905550506001915050919050565b60008060008373ffffffffffffffffffffffffffffffffffffffff1673ffffffffffffffffffffffffffffffffffffffff168152602001908152602001600020549050919050565b60008060010283600019161415151561052057600080fd5b60003411151561052f57600080fd5b6080604051908101604052803373ffffffffffffffffffffffffffffffffffffffff1681526020018373ffffffffffffffffffffffffffffffffffffffff168152602001348152602001846000191681525060016000856000191660001916815260200190815260200160002060008201518160000160006101000a81548173ffffffffffffffffffffffffffffffffffffffff021916908373ffffffffffffffffffffffffffffffffffffffff16021790555060208201518160010160006101000a81548173ffffffffffffffffffffffffffffffffffffffff021916908373ffffffffffffffffffffffffffffffffffffffff16021790555060408201518160020155606082015181600301906000191690559050506001905092915050565b600080600085856040518083805190602001908083835b60208310151561068d5780518252602082019150602081019050602083039250610668565b6001836020036101000a03801982511681845116808217855250505050505090500182805190602001908083835b6020831015156106e057805182526020820191506020810190506020830392506106bb565b6001836020036101000a03801982511681845116808217855250505050505090500192505050604051809103902091506001600083600019166000191681526020019081526020016000209050806003015460001916826000191614151561074757600080fd5b8373ffffffffffffffffffffffffffffffffffffffff166108fc82600201549081150290604051600060405180830381858888f19350505050158015610791573d6000803e3d6000fd5b5060035481600201548115156107a357fe5b046000808360010160009054906101000a900473ffffffffffffffffffffffffffffffffffffffff1673ffffffffffffffffffffffffffffffffffffffff1673ffffffffffffffffffffffffffffffffffffffff16815260200190815260200160002060008282540192505081905550600160008360001916600019168152602001908152602001600020600080820160006101000a81549073ffffffffffffffffffffffffffffffffffffffff02191690556001820160006101000a81549073ffffffffffffffffffffffffffffffffffffffff02191690556002820160009055600382016000905550506001925050509392505050565b60006020528060005260406000206000915090505481565b60016020528060005260406000206000915090508060000160009054906101000a900473ffffffffffffffffffffffffffffffffffffffff16908060010160009054906101000a900473ffffffffffffffffffffffffffffffffffffffff169080600201549080600301549050845600a165627a7a72305820b8d4590e2b493db73f08f8914d4f74f3ca1dba15e4559b57163a2a2b329cb28f0029",
  "source": "pragma solidity ^0.4.18;\r\n\r\ncontract Remittance {\r\n    mapping (address => uint256) public localCurrencyBalances;\r\n    mapping(bytes32 => Order) public orders;\r\n    uint256 totalTokens;  \r\n    uint256 tokenExchangeRate = 10000000000000000;\r\n     \r\n    struct Order {\r\n        address owner;\r\n        address recipient;\r\n        uint amount;\r\n        bytes32 pass;\r\n    }\r\n    \r\n    function Remittance() {\r\n        localCurrencyBalances[msg.sender] = 10000; \r\n        totalTokens = 10000;\r\n    } \r\n   \r\n    function sendRemittance(bytes32 password, address recipient) public payable  returns (bool)\r\n    {\r\n        require(password != 0);\r\n        require(msg.value > 0);\r\n\r\n        orders[password] = Order({\r\n            owner: msg.sender,\r\n            recipient: recipient,\r\n            amount: msg.value,\r\n            pass: password\r\n        });\r\n\r\n        return true;\r\n    }\r\n  \r\n    function claim(string emailPassword, string smsPassword, address r) public returns (bool)\r\n    {\r\n        bytes32 key = keccak256(emailPassword, smsPassword);\r\n        Order storage order = orders[key];\r\n        require(key == order.pass);\r\n        r.transfer(order.amount);\r\n        localCurrencyBalances[order.recipient] += order.amount / tokenExchangeRate;\r\n        delete orders[key];\r\n        \r\n        return true;\r\n    }\r\n    \r\n    function getLocalCurrencyByAddress(address addr) view returns (uint256){\r\n        return localCurrencyBalances[addr];\r\n    }\r\n     \r\n    function cancelRemittance(bytes32 password) public returns (bool)\r\n    {\r\n        Order storage order = orders[password];\r\n        require(msg.sender == order.owner);\r\n        msg.sender.transfer(order.amount); \r\n        delete orders[password];\r\n\r\n        return true;\r\n    }\r\n}",
  "sourcePath": "C:\\Work\\LimeChain\\Course\\Exam\\Remittance\\contracts\\Remittance.sol",
  "compiler": {
    "name": "solc",
    "version": "0.4.23+commit.124ca40d.Emscripten.clang"
  },
  "schemaVersion": "2.0.0",
  "updatedAt": "2018-05-09T00:41:13.602Z"
}